{
  "transactions": [
    {
      "hash": "0x42fd53446ff1d714419a561ec4515b5279b986e635f7ed60a7d321c6b8a9cccd",
      "transactionType": "CALL",
      "contractName": null,
      "contractAddress": "0x0efa4cece3b09a2aae39ef3e9fe03e7b296e8a44",
      "function": "diamondCut((address,uint8,bytes4[])[],address,bytes)",
      "arguments": [
        "[(0x890Bb28E43EFdB043C0E86a41e9E0c069A85C1ef, 1, [0x7125594c, 0x42b5621c, 0x8ef212c4, 0x144c5a3f, 0x19eaf528, 0x9a7a3aa7, 0xae68676c, 0x0192a31e, 0x1aedeabe])]",
        "0x0000000000000000000000000000000000000000",
        "0x"
      ],
      "transaction": {
        "from": "0xe268efa98296eb41d02264893e10a6b441330133",
        "to": "0x0efa4cece3b09a2aae39ef3e9fe03e7b296e8a44",
        "gas": "0x55440",
        "value": "0x0",
        "input": "0x1f931c1c00000000000000000000000000000000000000000000000000000000000000600000000000000000000000000000000000000000000000000000000000000000000000000000000000000000000000000000000000000000000000000000024000000000000000000000000000000000000000000000000000000000000000010000000000000000000000000000000000000000000000000000000000000020000000000000000000000000890bb28e43efdb043c0e86a41e9e0c069a85c1ef0000000000000000000000000000000000000000000000000000000000000001000000000000000000000000000000000000000000000000000000000000006000000000000000000000000000000000000000000000000000000000000000097125594c0000000000000000000000000000000000000000000000000000000042b5621c000000000000000000000000000000000000000000000000000000008ef212c400000000000000000000000000000000000000000000000000000000144c5a3f0000000000000000000000000000000000000000000000000000000019eaf528000000000000000000000000000000000000000000000000000000009a7a3aa700000000000000000000000000000000000000000000000000000000ae68676c000000000000000000000000000000000000000000000000000000000192a31e000000000000000000000000000000000000000000000000000000001aedeabe000000000000000000000000000000000000000000000000000000000000000000000000000000000000000000000000000000000000000000000000",
        "nonce": "0x39",
        "chainId": "0xaa36a7"
      },
      "additionalContracts": [],
      "isFixedGasLimit": false
    }
  ],
  "receipts": [
    {
      "status": "0x1",
      "cumulativeGasUsed": "0x462521",
      "logs": [
        {
          "address": "0x0efa4cece3b09a2aae39ef3e9fe03e7b296e8a44",
          "topics": [
            "0x8faa70878671ccd212d20771b795c50af8fd3ff6cf27f4bde57e5d4de0aeb673"
          ],
          "data": "0x00000000000000000000000000000000000000000000000000000000000000600000000000000000000000000000000000000000000000000000000000000000000000000000000000000000000000000000000000000000000000000000024000000000000000000000000000000000000000000000000000000000000000010000000000000000000000000000000000000000000000000000000000000020000000000000000000000000890bb28e43efdb043c0e86a41e9e0c069a85c1ef0000000000000000000000000000000000000000000000000000000000000001000000000000000000000000000000000000000000000000000000000000006000000000000000000000000000000000000000000000000000000000000000097125594c0000000000000000000000000000000000000000000000000000000042b5621c000000000000000000000000000000000000000000000000000000008ef212c400000000000000000000000000000000000000000000000000000000144c5a3f0000000000000000000000000000000000000000000000000000000019eaf528000000000000000000000000000000000000000000000000000000009a7a3aa700000000000000000000000000000000000000000000000000000000ae68676c000000000000000000000000000000000000000000000000000000000192a31e000000000000000000000000000000000000000000000000000000001aedeabe000000000000000000000000000000000000000000000000000000000000000000000000000000000000000000000000000000000000000000000000",
          "blockHash": "0x20d263b8d68f866935ba28639e4cb59bf133b212dca02bf1aa72c8a58daaf953",
          "blockNumber": "0x9aadda",
          "blockTimestamp": "0x69792f00",
          "transactionHash": "0x42fd53446ff1d714419a561ec4515b5279b986e635f7ed60a7d321c6b8a9cccd",
          "transactionIndex": "0x25",
          "logIndex": "0x3b",
          "removed": false
        }
      ],
      "logsBloom": "0x04000000000000000000000000000000000000000000000000000000000400000000000000000000000000000000000000000000000000000000000000000000020000000000000000000000000000000000000001000000000800000000000000000000000000000000000000000000000000000000000000000000000000000020000000000000000000000000000000000000000000000000000000000000000000000000000000000000000000000000000000000000000000000000000000000000000000000000000000000000000000000000000000000000000000000000000000000000000000000000000000000000000000000000000000000000",
      "type": "0x2",
      "transactionHash": "0x42fd53446ff1d714419a561ec4515b5279b986e635f7ed60a7d321c6b8a9cccd",
      "transactionIndex": "0x25",
      "blockHash": "0x20d263b8d68f866935ba28639e4cb59bf133b212dca02bf1aa72c8a58daaf953",
      "blockNumber": "0x9aadda",
      "gasUsed": "0x3a4d3",
      "effectiveGasPrice": "0x3cc49457",
      "from": "0xe268efa98296eb41d02264893e10a6b441330133",
      "to": "0x0efa4cece3b09a2aae39ef3e9fe03e7b296e8a44",
      "contractAddress": null
    }
  ],
  "libraries": [],
  "pending": [],
  "returns": {
    "newFacetAddress": {
      "internal_type": "address",
      "value": "0x890Bb28E43EFdB043C0E86a41e9E0c069A85C1ef"
    }
  },
  "timestamp": 1769549568811,
  "chain": 11155111,
  "commit": "a66ad7d"
}