{
  "transactions": [
    {
      "hash": "0xae23a351868e600acd22f1ec0bcdb456d4a5bf9ab980e2e97e28c9186788f74a",
      "transactionType": "CALL",
      "contractName": null,
      "contractAddress": "0x42583067658071247ec8ce0a516a58f682002d07",
      "function": "modifyAllocations(address,((address,uint32),address[],uint64[])[])",
      "arguments": [
        "0xE268efA98296EB41d02264893E10a6B441330133",
        "[((0xEa78F958c90aFA7B9F21bD26cf072fE2f9174910, 1), [0xD3a54A9E02016491dad36601f40493A8D7168980], [0])]"
      ],
      "transaction": {
        "from": "0xe268efa98296eb41d02264893e10a6b441330133",
        "to": "0x42583067658071247ec8ce0a516a58f682002d07",
        "gas": "0x2a7d5",
        "value": "0x0",
        "input": "0x952899ee000000000000000000000000e268efa98296eb41d02264893e10a6b441330133000000000000000000000000000000000000000000000000000000000000004000000000000000000000000000000000000000000000000000000000000000010000000000000000000000000000000000000000000000000000000000000020000000000000000000000000ea78f958c90afa7b9f21bd26cf072fe2f91749100000000000000000000000000000000000000000000000000000000000000001000000000000000000000000000000000000000000000000000000000000008000000000000000000000000000000000000000000000000000000000000000c00000000000000000000000000000000000000000000000000000000000000001000000000000000000000000d3a54a9e02016491dad36601f40493a8d716898000000000000000000000000000000000000000000000000000000000000000010000000000000000000000000000000000000000000000000000000000000000",
        "nonce": "0x70",
        "chainId": "0xaa36a7"
      },
      "additionalContracts": [],
      "isFixedGasLimit": false
    }
  ],
  "receipts": [
    {
      "status": "0x1",
      "cumulativeGasUsed": "0xe286d0",
      "logs": [
        {
          "address": "0x42583067658071247ec8ce0a516a58f682002d07",
          "topics": [
            "0x1487af5418c47ee5ea45ef4a93398668120890774a9e13487e61e9dc3baf76dd"
          ],
          "data": "0x000000000000000000000000e268efa98296eb41d02264893e10a6b441330133000000000000000000000000ea78f958c90afa7b9f21bd26cf072fe2f91749100000000000000000000000000000000000000000000000000000000000000001000000000000000000000000d3a54a9e02016491dad36601f40493a8d7168980000000000000000000000000000000000000000000000000000000000000000000000000000000000000000000000000000000000000000000000000009ec5e4",
          "blockHash": "0xe59ef6e82675e78a7c22f1eba34705b7a4fdcf3a8811fc48051b5477f8628bac",
          "blockNumber": "0x9ec5b1",
          "blockTimestamp": "0x69acb630",
          "transactionHash": "0xae23a351868e600acd22f1ec0bcdb456d4a5bf9ab980e2e97e28c9186788f74a",
          "transactionIndex": "0x90",
          "logIndex": "0xef",
          "removed": false
        }
      ],
      "logsBloom": "0x00200000000000000004000000000000000000000000000000000000000000000000000000000000000000000000000000000000000000000000000000000000000000000000000000000000000000000000000000000000000000000000000000000000000000000000000000000000000000000000000000000000000000000000000000000000000000000000000000000000000000000000000000000000000000000000000000000000000000000000000000000000000000000000000000000000000000001000000000000000000000000008000000000000000000000000000000000000000001000000080000000000000000000000000000000000",
      "type": "0x2",
      "transactionHash": "0xae23a351868e600acd22f1ec0bcdb456d4a5bf9ab980e2e97e28c9186788f74a",
      "transactionIndex": "0x90",
      "blockHash": "0xe59ef6e82675e78a7c22f1eba34705b7a4fdcf3a8811fc48051b5477f8628bac",
      "blockNumber": "0x9ec5b1",
      "gasUsed": "0x1ec30",
      "effectiveGasPrice": "0x55de00",
      "from": "0xe268efa98296eb41d02264893e10a6b441330133",
      "to": "0x42583067658071247ec8ce0a516a58f682002d07",
      "contractAddress": null
    }
  ],
  "libraries": [],
  "pending": [],
  "returns": {
    "paramsCount": {
      "internal_type": "uint256",
      "value": "1"
    }
  },
  "timestamp": 1772926513104,
  "chain": 11155111,
  "commit": "13a4114"
}