{
  "transactions": [
    {
      "hash": "0x402d956c6ca758e4ba2fbf09bff4b0020704ff2e93707f9ef7598d10ad9d5f16",
      "transactionType": "CALL",
      "contractName": null,
      "contractAddress": "0xd4a7e1bd8015057293f0d0a557088c286942e84b",
      "function": "queueWithdrawals((address[],uint256[],address)[])",
      "arguments": [
        "[([0xD3a54A9E02016491dad36601f40493A8D7168980], [200000000000000000], 0x0000000000000000000000000000000000000000)]"
      ],
      "transaction": {
        "from": "0xec6a4486b0e211f19d0107b362c3c8333d52a0d9",
        "to": "0xd4a7e1bd8015057293f0d0a557088c286942e84b",
        "gas": "0x94671",
        "value": "0x0",
        "input": "0x0dd8dd02000000000000000000000000000000000000000000000000000000000000002000000000000000000000000000000000000000000000000000000000000000010000000000000000000000000000000000000000000000000000000000000020000000000000000000000000000000000000000000000000000000000000006000000000000000000000000000000000000000000000000000000000000000a000000000000000000000000000000000000000000000000000000000000000000000000000000000000000000000000000000000000000000000000000000001000000000000000000000000d3a54a9e02016491dad36601f40493a8d7168980000000000000000000000000000000000000000000000000000000000000000100000000000000000000000000000000000000000000000002c68af0bb140000",
        "nonce": "0x14",
        "chainId": "0xaa36a7"
      },
      "additionalContracts": [],
      "isFixedGasLimit": false
    }
  ],
  "receipts": [
    {
      "status": "0x1",
      "cumulativeGasUsed": "0x1417628",
      "logs": [
        {
          "address": "0xd4a7e1bd8015057293f0d0a557088c286942e84b",
          "topics": [
            "0x6909600037b75d7b4733aedd815442b5ec018a827751c832aaff64eba5d6d2dd",
            "0x000000000000000000000000ec6a4486b0e211f19d0107b362c3c8333d52a0d9"
          ],
          "data": "0x000000000000000000000000ec6a4486b0e211f19d0107b362c3c8333d52a0d9000000000000000000000000d3a54a9e02016491dad36601f40493a8d716898000000000000000000000000000000000000000000000000002c68af0bb140000",
          "blockHash": "0x663dad23eb38729495f9ac859afeb6fbdc88f654f455280d4c247b27b290c8ad",
          "blockNumber": "0x9edbd7",
          "blockTimestamp": "0x69adec5c",
          "transactionHash": "0x402d956c6ca758e4ba2fbf09bff4b0020704ff2e93707f9ef7598d10ad9d5f16",
          "transactionIndex": "0x73",
          "logIndex": "0x199",
          "removed": false
        },
        {
          "address": "0xd4a7e1bd8015057293f0d0a557088c286942e84b",
          "topics": [
            "0x8be932bac54561f27260f95463d9b8ab37e06b2842e5ee2404157cc13df6eb8f"
          ],
          "data": "0x000000000000000000000000ec6a4486b0e211f19d0107b362c3c8333d52a0d9000000000000000000000000d3a54a9e02016491dad36601f40493a8d71689800000000000000000000000000000000000000000000000000de0b6b3a7640000",
          "blockHash": "0x663dad23eb38729495f9ac859afeb6fbdc88f654f455280d4c247b27b290c8ad",
          "blockNumber": "0x9edbd7",
          "blockTimestamp": "0x69adec5c",
          "transactionHash": "0x402d956c6ca758e4ba2fbf09bff4b0020704ff2e93707f9ef7598d10ad9d5f16",
          "transactionIndex": "0x73",
          "logIndex": "0x19a",
          "removed": false
        },
        {
          "address": "0xd4a7e1bd8015057293f0d0a557088c286942e84b",
          "topics": [
            "0x26b2aae26516e8719ef50ea2f6831a2efbd4e37dccdf0f6936b27bc08e793e30"
          ],
          "data": "0x066dc45aec51676b298270dfb16a43b86c62fad878c2908108cdd80468011767000000000000000000000000000000000000000000000000000000000000006000000000000000000000000000000000000000000000000000000000000001c0000000000000000000000000ec6a4486b0e211f19d0107b362c3c8333d52a0d9000000000000000000000000ec6a4486b0e211f19d0107b362c3c8333d52a0d9000000000000000000000000ec6a4486b0e211f19d0107b362c3c8333d52a0d9000000000000000000000000000000000000000000000000000000000000000000000000000000000000000000000000000000000000000000000000009edbd700000000000000000000000000000000000000000000000000000000000000e000000000000000000000000000000000000000000000000000000000000001200000000000000000000000000000000000000000000000000000000000000001000000000000000000000000d3a54a9e02016491dad36601f40493a8d7168980000000000000000000000000000000000000000000000000000000000000000100000000000000000000000000000000000000000000000002c68af0bb140000000000000000000000000000000000000000000000000000000000000000000100000000000000000000000000000000000000000000000002c68af0bb140000",
          "blockHash": "0x663dad23eb38729495f9ac859afeb6fbdc88f654f455280d4c247b27b290c8ad",
          "blockNumber": "0x9edbd7",
          "blockTimestamp": "0x69adec5c",
          "transactionHash": "0x402d956c6ca758e4ba2fbf09bff4b0020704ff2e93707f9ef7598d10ad9d5f16",
          "transactionIndex": "0x73",
          "logIndex": "0x19b",
          "removed": false
        }
      ],
      "logsBloom": "0x00000000000000000000000000000000000000000000000000000000000000000000009000000000000000000000000000000000000020000000028000000000040000001000000000000000002000000000000000000000002000000000400000000000000000000000000000000000000000000000000000000000000000000000000000400000000000000000200000000000000000000000000000000000000000000000000000000000000000000000000000000000000000000000000000000000000001000000000000000000000000000000000000000000000000000000000200000000000000000000000000000000000000000010000000000000",
      "type": "0x2",
      "transactionHash": "0x402d956c6ca758e4ba2fbf09bff4b0020704ff2e93707f9ef7598d10ad9d5f16",
      "transactionIndex": "0x73",
      "blockHash": "0x663dad23eb38729495f9ac859afeb6fbdc88f654f455280d4c247b27b290c8ad",
      "blockNumber": "0x9edbd7",
      "gasUsed": "0x6b70f",
      "effectiveGasPrice": "0x100ff8",
      "from": "0xec6a4486b0e211f19d0107b362c3c8333d52a0d9",
      "to": "0xd4a7e1bd8015057293f0d0a557088c286942e84b",
      "contractAddress": null
    }
  ],
  "libraries": [],
  "pending": [],
  "returns": {},
  "timestamp": 1773005917178,
  "chain": 11155111,
  "commit": "6d5a8f2"
}