{
  "transactions": [
    {
      "hash": "0xde61d422e974db7227175d0d81b1bafa4d024104151e16ce0b126a94e29141f7",
      "transactionType": "CALL",
      "contractName": null,
      "contractAddress": "0xd4a7e1bd8015057293f0d0a557088c286942e84b",
      "function": "registerAsOperator(address,uint32,string)",
      "arguments": [
        "0x0000000000000000000000000000000000000000",
        "0",
        "https://zoixitymnnkqjevkmphl.supabase.co/storage/v1/object/public/metadata/eigen-operator.json"
      ],
      "transaction": {
        "from": "0xec6a4486b0e211f19d0107b362c3c8333d52a0d9",
        "to": "0xd4a7e1bd8015057293f0d0a557088c286942e84b",
        "gas": "0x30db6",
        "value": "0x0",
        "input": "0x2aa6d888000000000000000000000000000000000000000000000000000000000000000000000000000000000000000000000000000000000000000000000000000000000000000000000000000000000000000000000000000000000000000000000060000000000000000000000000000000000000000000000000000000000000005e68747470733a2f2f7a6f69786974796d6e6e6b716a65766b6d70686c2e73757061626173652e636f2f73746f726167652f76312f6f626a6563742f7075626c69632f6d657461646174612f656967656e2d6f70657261746f722e6a736f6e0000",
        "nonce": "0x0",
        "chainId": "0xaa36a7"
      },
      "additionalContracts": [],
      "isFixedGasLimit": false
    },
    {
      "hash": "0xa2ece21738660d35960e28ccabd683600e834727592db86c2db94ef413ee7f52",
      "transactionType": "CALL",
      "contractName": null,
      "contractAddress": "0xfff9976782d46cc05630d1f6ebab18b2324d6b14",
      "function": "deposit()",
      "arguments": [],
      "transaction": {
        "from": "0xec6a4486b0e211f19d0107b362c3c8333d52a0d9",
        "to": "0xfff9976782d46cc05630d1f6ebab18b2324d6b14",
        "gas": "0xf2ff",
        "value": "0x2c68af0bb140000",
        "input": "0xd0e30db0",
        "nonce": "0x1",
        "chainId": "0xaa36a7"
      },
      "additionalContracts": [],
      "isFixedGasLimit": false
    },
    {
      "hash": "0xd531b0396c7783db0029dcd2d0f119b85248e1dbb969873504084f52e2ddef31",
      "transactionType": "CALL",
      "contractName": null,
      "contractAddress": "0xfff9976782d46cc05630d1f6ebab18b2324d6b14",
      "function": "approve(address,uint256)",
      "arguments": [
        "0x2E3D6c0744b10eb0A4e6F679F71554a39Ec47a5D",
        "200000000000000000"
      ],
      "transaction": {
        "from": "0xec6a4486b0e211f19d0107b362c3c8333d52a0d9",
        "to": "0xfff9976782d46cc05630d1f6ebab18b2324d6b14",
        "gas": "0xf879",
        "value": "0x0",
        "input": "0x095ea7b30000000000000000000000002e3d6c0744b10eb0a4e6f679f71554a39ec47a5d00000000000000000000000000000000000000000000000002c68af0bb140000",
        "nonce": "0x2",
        "chainId": "0xaa36a7"
      },
      "additionalContracts": [],
      "isFixedGasLimit": false
    },
    {
      "hash": "0x74c45f369972931ed70f51069aade54685516fe5e8bb4d90e42cdaf0b8c33da4",
      "transactionType": "CALL",
      "contractName": null,
      "contractAddress": "0x2e3d6c0744b10eb0a4e6f679f71554a39ec47a5d",
      "function": "depositIntoStrategy(address,address,uint256)",
      "arguments": [
        "0xD3a54A9E02016491dad36601f40493A8D7168980",
        "0xfFf9976782d46CC05630D1f6eBAb18b2324d6B14",
        "200000000000000000"
      ],
      "transaction": {
        "from": "0xec6a4486b0e211f19d0107b362c3c8333d52a0d9",
        "to": "0x2e3d6c0744b10eb0a4e6f679f71554a39ec47a5d",
        "gas": "0x4c882",
        "value": "0x0",
        "input": "0xe7a050aa000000000000000000000000d3a54a9e02016491dad36601f40493a8d7168980000000000000000000000000fff9976782d46cc05630d1f6ebab18b2324d6b1400000000000000000000000000000000000000000000000002c68af0bb140000",
        "nonce": "0x3",
        "chainId": "0xaa36a7"
      },
      "additionalContracts": [],
      "isFixedGasLimit": false
    },
    {
      "hash": "0x71be8a69bae2726ec0a4cd3ff8644f16cf57b009c417014500bcc80029d135c5",
      "transactionType": "CALL",
      "contractName": null,
      "contractAddress": "0x42583067658071247ec8ce0a516a58f682002d07",
      "function": "registerForOperatorSets(address,(address,uint32[],bytes))",
      "arguments": [
        "0xeC6A4486B0E211f19d0107B362C3c8333d52a0D9",
        "(0x04583FfEc9E808E61e0bfE46dB51b71AFA36B28f, [1], 0x)"
      ],
      "transaction": {
        "from": "0xec6a4486b0e211f19d0107b362c3c8333d52a0d9",
        "to": "0x42583067658071247ec8ce0a516a58f682002d07",
        "gas": "0x562d3",
        "value": "0x0",
        "input": "0xadc2e3d9000000000000000000000000ec6a4486b0e211f19d0107b362c3c8333d52a0d9000000000000000000000000000000000000000000000000000000000000004000000000000000000000000004583ffec9e808e61e0bfe46db51b71afa36b28f000000000000000000000000000000000000000000000000000000000000006000000000000000000000000000000000000000000000000000000000000000a0000000000000000000000000000000000000000000000000000000000000000100000000000000000000000000000000000000000000000000000000000000010000000000000000000000000000000000000000000000000000000000000000",
        "nonce": "0x4",
        "chainId": "0xaa36a7"
      },
      "additionalContracts": [],
      "isFixedGasLimit": false
    },
    {
      "hash": "0x4205fd4a4b8818ff9edc36cfc6592f0dbded182d42dacfbd922d97795e1527f8",
      "transactionType": "CALL",
      "contractName": null,
      "contractAddress": "0x42583067658071247ec8ce0a516a58f682002d07",
      "function": "modifyAllocations(address,((address,uint32),address[],uint64[])[])",
      "arguments": [
        "0xeC6A4486B0E211f19d0107B362C3c8333d52a0D9",
        "[((0x04583FfEc9E808E61e0bfE46dB51b71AFA36B28f, 1), [0xD3a54A9E02016491dad36601f40493A8D7168980], [200000000000000000])]"
      ],
      "transaction": {
        "from": "0xec6a4486b0e211f19d0107b362c3c8333d52a0d9",
        "to": "0x42583067658071247ec8ce0a516a58f682002d07",
        "gas": "0x54c26",
        "value": "0x0",
        "input": "0x952899ee000000000000000000000000ec6a4486b0e211f19d0107b362c3c8333d52a0d900000000000000000000000000000000000000000000000000000000000000400000000000000000000000000000000000000000000000000000000000000001000000000000000000000000000000000000000000000000000000000000002000000000000000000000000004583ffec9e808e61e0bfe46db51b71afa36b28f0000000000000000000000000000000000000000000000000000000000000001000000000000000000000000000000000000000000000000000000000000008000000000000000000000000000000000000000000000000000000000000000c00000000000000000000000000000000000000000000000000000000000000001000000000000000000000000d3a54a9e02016491dad36601f40493a8d7168980000000000000000000000000000000000000000000000000000000000000000100000000000000000000000000000000000000000000000002c68af0bb140000",
        "nonce": "0x5",
        "chainId": "0xaa36a7"
      },
      "additionalContracts": [],
      "isFixedGasLimit": false
    },
    {
      "hash": "0x96a5a90a4e1788aa75a93a1545cced25c082f63ad8fcd584f2c61edb20da223f",
      "transactionType": "CALL",
      "contractName": null,
      "contractAddress": "0x04583ffec9e808e61e0bfe46db51b71afa36b28f",
      "function": "createPosition((address,uint16,uint256,uint256,address,uint8,address,uint256,bytes32),bytes)",
      "arguments": [
        "(0x74A8D3B01C3d88Dd9a6aC02E14E9B6780D16a1B3, 100, 2592000, 1775552712, 0xfFf9976782d46CC05630D1f6eBAb18b2324d6B14, 0, 0x0000000000000000000000000000000000000000, 604800, 0x000000000000000000000000ec6a4486b0e211f19d0107b362c3c8333d52a0d9)",
        "0x"
      ],
      "transaction": {
        "from": "0xec6a4486b0e211f19d0107b362c3c8333d52a0d9",
        "to": "0x04583ffec9e808e61e0bfe46db51b71afa36b28f",
        "gas": "0x709ca",
        "value": "0x0",
        "input": "0xbff9ed4b00000000000000000000000074a8d3b01c3d88dd9a6ac02e14e9b6780d16a1b300000000000000000000000000000000000000000000000000000000000000640000000000000000000000000000000000000000000000000000000000278d000000000000000000000000000000000000000000000000000000000069d4c8c8000000000000000000000000fff9976782d46cc05630d1f6ebab18b2324d6b14000000000000000000000000000000000000000000000000000000000000000000000000000000000000000000000000000000000000000000000000000000000000000000000000000000000000000000000000000000000000000000093a80000000000000000000000000ec6a4486b0e211f19d0107b362c3c8333d52a0d900000000000000000000000000000000000000000000000000000000000001400000000000000000000000000000000000000000000000000000000000000000",
        "nonce": "0x6",
        "chainId": "0xaa36a7"
      },
      "additionalContracts": [],
      "isFixedGasLimit": false
    }
  ],
  "receipts": [
    {
      "status": "0x1",
      "cumulativeGasUsed": "0x1ae7f1e",
      "logs": [
        {
          "address": "0x42583067658071247ec8ce0a516a58f682002d07",
          "topics": [
            "0x4e85751d6331506c6c62335f207eb31f12a61e570f34f5c17640308785c6d4db"
          ],
          "data": "0x000000000000000000000000ec6a4486b0e211f19d0107b362c3c8333d52a0d9000000000000000000000000000000000000000000000000000000000000000000000000000000000000000000000000000000000000000000000000009ecf3c",
          "blockHash": "0xbd0fc3ec7da1b5d1c5c3950a8ae5f267c71d001dcd95b941b46a943f59152953",
          "blockNumber": "0x9ecf3c",
          "blockTimestamp": "0x69ad3c04",
          "transactionHash": "0xd531b0396c7783db0029dcd2d0f119b85248e1dbb969873504084f52e2ddef31",
          "transactionIndex": "0x7c",
          "logIndex": "0x173",
          "removed": false
        },
        {
          "address": "0xd4a7e1bd8015057293f0d0a557088c286942e84b",
          "topics": [
            "0x773b54c04d756fcc5e678111f7d730de3be98192000799eee3d63716055a87c6",
            "0x000000000000000000000000ec6a4486b0e211f19d0107b362c3c8333d52a0d9"
          ],
          "data": "0x0000000000000000000000000000000000000000000000000000000000000000",
          "blockHash": "0xbd0fc3ec7da1b5d1c5c3950a8ae5f267c71d001dcd95b941b46a943f59152953",
          "blockNumber": "0x9ecf3c",
          "blockTimestamp": "0x69ad3c04",
          "transactionHash": "0xd531b0396c7783db0029dcd2d0f119b85248e1dbb969873504084f52e2ddef31",
          "transactionIndex": "0x7c",
          "logIndex": "0x174",
          "removed": false
        },
        {
          "address": "0xd4a7e1bd8015057293f0d0a557088c286942e84b",
          "topics": [
            "0xc3ee9f2e5fda98e8066a1f745b2df9285f416fe98cf2559cd21484b3d8743304",
            "0x000000000000000000000000ec6a4486b0e211f19d0107b362c3c8333d52a0d9",
            "0x000000000000000000000000ec6a4486b0e211f19d0107b362c3c8333d52a0d9"
          ],
          "data": "0x",
          "blockHash": "0xbd0fc3ec7da1b5d1c5c3950a8ae5f267c71d001dcd95b941b46a943f59152953",
          "blockNumber": "0x9ecf3c",
          "blockTimestamp": "0x69ad3c04",
          "transactionHash": "0xd531b0396c7783db0029dcd2d0f119b85248e1dbb969873504084f52e2ddef31",
          "transactionIndex": "0x7c",
          "logIndex": "0x175",
          "removed": false
        },
        {
          "address": "0xd4a7e1bd8015057293f0d0a557088c286942e84b",
          "topics": [
            "0xa453db612af59e5521d6ab9284dc3e2d06af286eb1b1b7b771fce4716c19f2c1",
            "0x000000000000000000000000ec6a4486b0e211f19d0107b362c3c8333d52a0d9"
          ],
          "data": "0x0000000000000000000000000000000000000000000000000000000000000000",
          "blockHash": "0xbd0fc3ec7da1b5d1c5c3950a8ae5f267c71d001dcd95b941b46a943f59152953",
          "blockNumber": "0x9ecf3c",
          "blockTimestamp": "0x69ad3c04",
          "transactionHash": "0xd531b0396c7783db0029dcd2d0f119b85248e1dbb969873504084f52e2ddef31",
          "transactionIndex": "0x7c",
          "logIndex": "0x176",
          "removed": false
        },
        {
          "address": "0xd4a7e1bd8015057293f0d0a557088c286942e84b",
          "topics": [
            "0x02a919ed0e2acad1dd90f17ef2fa4ae5462ee1339170034a8531cca4b6708090",
            "0x000000000000000000000000ec6a4486b0e211f19d0107b362c3c8333d52a0d9"
          ],
          "data": "0x0000000000000000000000000000000000000000000000000000000000000020000000000000000000000000000000000000000000000000000000000000005e68747470733a2f2f7a6f69786974796d6e6e6b716a65766b6d70686c2e73757061626173652e636f2f73746f726167652f76312f6f626a6563742f7075626c69632f6d657461646174612f656967656e2d6f70657261746f722e6a736f6e0000",
          "blockHash": "0xbd0fc3ec7da1b5d1c5c3950a8ae5f267c71d001dcd95b941b46a943f59152953",
          "blockNumber": "0x9ecf3c",
          "blockTimestamp": "0x69ad3c04",
          "transactionHash": "0xd531b0396c7783db0029dcd2d0f119b85248e1dbb969873504084f52e2ddef31",
          "transactionIndex": "0x7c",
          "logIndex": "0x177",
          "removed": false
        }
      ],
      "logsBloom": "0x00000010000000000100000000000000000000000000000000000001000000000000008000000000000000000000000000000020000060002000020000000000000000000000000000000000000000000000000000000000000000000000000000000000000000000000000000000000000000000000200000000000000000000000000000400000000000000000200000800000000000000240000000000000000000000000000000000000000000000000000000000000000000000000000000000000101000001000000000040000010000000000000000000000000000000000000200000000000001000000080002000000000000000000000000000000",
      "type": "0x2",
      "transactionHash": "0xd531b0396c7783db0029dcd2d0f119b85248e1dbb969873504084f52e2ddef31",
      "transactionIndex": "0x7c",
      "blockHash": "0xbd0fc3ec7da1b5d1c5c3950a8ae5f267c71d001dcd95b941b46a943f59152953",
      "blockNumber": "0x9ecf3c",
      "gasUsed": "0x21681",
      "effectiveGasPrice": "0x51c23d7",
      "from": "0xec6a4486b0e211f19d0107b362c3c8333d52a0d9",
      "to": "0xd4a7e1bd8015057293f0d0a557088c286942e84b",
      "contractAddress": null
    },
    {
      "status": "0x1",
      "cumulativeGasUsed": "0x1dd24b2",
      "logs": [
        {
          "address": "0xfff9976782d46cc05630d1f6ebab18b2324d6b14",
          "topics": [
            "0xe1fffcc4923d04b559f4d29a8bfc6cda04eb5b0d3c460751c2402c5c5cc9109c",
            "0x000000000000000000000000ec6a4486b0e211f19d0107b362c3c8333d52a0d9"
          ],
          "data": "0x00000000000000000000000000000000000000000000000002c68af0bb140000",
          "blockHash": "0xbd0fc3ec7da1b5d1c5c3950a8ae5f267c71d001dcd95b941b46a943f59152953",
          "blockNumber": "0x9ecf3c",
          "blockTimestamp": "0x69ad3c04",
          "transactionHash": "0xa2ece21738660d35960e28ccabd683600e834727592db86c2db94ef413ee7f52",
          "transactionIndex": "0x97",
          "logIndex": "0x1a2",
          "removed": false
        }
      ],
      "logsBloom": "0x00000000000000000000000000000000000000000000000000000000000000000000000000000000000000000000000000000000000000000000020000000000000000000000000000000000000000000000000000000000000000008000000000000000000000000000000000000000000000000000000000000000000000000040000000400000000000000000200000000001000000000000000000000000000020000000000000000000000000000000000000000000000000000000000000000000000000000002000000000000000000000000000000000000000000000000000000000000000000000000000000000000000000400000000000000000",
      "type": "0x2",
      "transactionHash": "0xa2ece21738660d35960e28ccabd683600e834727592db86c2db94ef413ee7f52",
      "transactionIndex": "0x97",
      "blockHash": "0xbd0fc3ec7da1b5d1c5c3950a8ae5f267c71d001dcd95b941b46a943f59152953",
      "blockNumber": "0x9ecf3c",
      "gasUsed": "0xafee",
      "effectiveGasPrice": "0x51c23d7",
      "from": "0xec6a4486b0e211f19d0107b362c3c8333d52a0d9",
      "to": "0xfff9976782d46cc05630d1f6ebab18b2324d6b14",
      "contractAddress": null
    },
    {
      "status": "0x1",
      "cumulativeGasUsed": "0x1ddd896",
      "logs": [
        {
          "address": "0xfff9976782d46cc05630d1f6ebab18b2324d6b14",
          "topics": [
            "0x8c5be1e5ebec7d5bd14f71427d1e84f3dd0314c0f7b2291e5b200ac8c7c3b925",
            "0x000000000000000000000000ec6a4486b0e211f19d0107b362c3c8333d52a0d9",
            "0x0000000000000000000000002e3d6c0744b10eb0a4e6f679f71554a39ec47a5d"
          ],
          "data": "0x00000000000000000000000000000000000000000000000002c68af0bb140000",
          "blockHash": "0xbd0fc3ec7da1b5d1c5c3950a8ae5f267c71d001dcd95b941b46a943f59152953",
          "blockNumber": "0x9ecf3c",
          "blockTimestamp": "0x69ad3c04",
          "transactionHash": "0x4205fd4a4b8818ff9edc36cfc6592f0dbded182d42dacfbd922d97795e1527f8",
          "transactionIndex": "0x98",
          "logIndex": "0x1a3",
          "removed": false
        }
      ],
      "logsBloom": "0x00000000000000000000000400000000000000000000000000000000000000000000000000000000000000000000000000000000000000000000020000200000000000000000000000000000000000000000000000000000000000000000000000000000000000000000000000000000000000000000000000000000000000000040000000400000000000000000200000000000000000000000000000000000020020000000000008000000000000001000000000000000000000000000000000000000000000000002000000000000000000000000000000000000000000000010000000000000000000000000000000000000000000000000000000000000",
      "type": "0x2",
      "transactionHash": "0x4205fd4a4b8818ff9edc36cfc6592f0dbded182d42dacfbd922d97795e1527f8",
      "transactionIndex": "0x98",
      "blockHash": "0xbd0fc3ec7da1b5d1c5c3950a8ae5f267c71d001dcd95b941b46a943f59152953",
      "blockNumber": "0x9ecf3c",
      "gasUsed": "0xb3e4",
      "effectiveGasPrice": "0x51c23d7",
      "from": "0xec6a4486b0e211f19d0107b362c3c8333d52a0d9",
      "to": "0xfff9976782d46cc05630d1f6ebab18b2324d6b14",
      "contractAddress": null
    },
    {
      "status": "0x1",
      "cumulativeGasUsed": "0x1e14f1c",
      "logs": [
        {
          "address": "0xfff9976782d46cc05630d1f6ebab18b2324d6b14",
          "topics": [
            "0xddf252ad1be2c89b69c2b068fc378daa952ba7f163c4a11628f55a4df523b3ef",
            "0x000000000000000000000000ec6a4486b0e211f19d0107b362c3c8333d52a0d9",
            "0x000000000000000000000000d3a54a9e02016491dad36601f40493a8d7168980"
          ],
          "data": "0x00000000000000000000000000000000000000000000000002c68af0bb140000",
          "blockHash": "0xbd0fc3ec7da1b5d1c5c3950a8ae5f267c71d001dcd95b941b46a943f59152953",
          "blockNumber": "0x9ecf3c",
          "blockTimestamp": "0x69ad3c04",
          "transactionHash": "0xde61d422e974db7227175d0d81b1bafa4d024104151e16ce0b126a94e29141f7",
          "transactionIndex": "0x99",
          "logIndex": "0x1a4",
          "removed": false
        },
        {
          "address": "0xd3a54a9e02016491dad36601f40493a8d7168980",
          "topics": [
            "0xd2494f3479e5da49d386657c292c610b5b01df313d07c62eb0cfa49924a31be8"
          ],
          "data": "0x0000000000000000000000000000000000000000000000000de0b6b3a7640000",
          "blockHash": "0xbd0fc3ec7da1b5d1c5c3950a8ae5f267c71d001dcd95b941b46a943f59152953",
          "blockNumber": "0x9ecf3c",
          "blockTimestamp": "0x69ad3c04",
          "transactionHash": "0xde61d422e974db7227175d0d81b1bafa4d024104151e16ce0b126a94e29141f7",
          "transactionIndex": "0x99",
          "logIndex": "0x1a5",
          "removed": false
        },
        {
          "address": "0x2e3d6c0744b10eb0a4e6f679f71554a39ec47a5d",
          "topics": [
            "0x5548c837ab068cf56a2c2479df0882a4922fd203edb7517321831d95078c5f62"
          ],
          "data": "0x000000000000000000000000ec6a4486b0e211f19d0107b362c3c8333d52a0d9000000000000000000000000d3a54a9e02016491dad36601f40493a8d716898000000000000000000000000000000000000000000000000002c68af0bb140000",
          "blockHash": "0xbd0fc3ec7da1b5d1c5c3950a8ae5f267c71d001dcd95b941b46a943f59152953",
          "blockNumber": "0x9ecf3c",
          "blockTimestamp": "0x69ad3c04",
          "transactionHash": "0xde61d422e974db7227175d0d81b1bafa4d024104151e16ce0b126a94e29141f7",
          "transactionIndex": "0x99",
          "logIndex": "0x1a6",
          "removed": false
        },
        {
          "address": "0xd4a7e1bd8015057293f0d0a557088c286942e84b",
          "topics": [
            "0x8be932bac54561f27260f95463d9b8ab37e06b2842e5ee2404157cc13df6eb8f"
          ],
          "data": "0x000000000000000000000000ec6a4486b0e211f19d0107b362c3c8333d52a0d9000000000000000000000000d3a54a9e02016491dad36601f40493a8d71689800000000000000000000000000000000000000000000000000de0b6b3a7640000",
          "blockHash": "0xbd0fc3ec7da1b5d1c5c3950a8ae5f267c71d001dcd95b941b46a943f59152953",
          "blockNumber": "0x9ecf3c",
          "blockTimestamp": "0x69ad3c04",
          "transactionHash": "0xde61d422e974db7227175d0d81b1bafa4d024104151e16ce0b126a94e29141f7",
          "transactionIndex": "0x99",
          "logIndex": "0x1a7",
          "removed": false
        },
        {
          "address": "0xd4a7e1bd8015057293f0d0a557088c286942e84b",
          "topics": [
            "0x1ec042c965e2edd7107b51188ee0f383e22e76179041ab3a9d18ff151405166c",
            "0x000000000000000000000000ec6a4486b0e211f19d0107b362c3c8333d52a0d9"
          ],
          "data": "0x000000000000000000000000ec6a4486b0e211f19d0107b362c3c8333d52a0d9000000000000000000000000d3a54a9e02016491dad36601f40493a8d716898000000000000000000000000000000000000000000000000002c68af0bb140000",
          "blockHash": "0xbd0fc3ec7da1b5d1c5c3950a8ae5f267c71d001dcd95b941b46a943f59152953",
          "blockNumber": "0x9ecf3c",
          "blockTimestamp": "0x69ad3c04",
          "transactionHash": "0xde61d422e974db7227175d0d81b1bafa4d024104151e16ce0b126a94e29141f7",
          "transactionIndex": "0x99",
          "logIndex": "0x1a8",
          "removed": false
        }
      ],
      "logsBloom": "0x00000000000000000000000000000000000000000000000000000000000000000000008000010000000000000000000000000000000022000000028040000000040000000008800000000008000000000000000000000001000000000000000000000000000000000000000000000000000000000000000000000010000000000040440000400000000000000000200000000000040000000000000000000000000020000000000000000000000000001000000000000000010000000000001000000002000001000042000000000020000000100008000000000000000000000000000200000000000000000000000000000000000000000000000000480000",
      "type": "0x2",
      "transactionHash": "0xde61d422e974db7227175d0d81b1bafa4d024104151e16ce0b126a94e29141f7",
      "transactionIndex": "0x99",
      "blockHash": "0xbd0fc3ec7da1b5d1c5c3950a8ae5f267c71d001dcd95b941b46a943f59152953",
      "blockNumber": "0x9ecf3c",
      "gasUsed": "0x37686",
      "effectiveGasPrice": "0x51c23d7",
      "from": "0xec6a4486b0e211f19d0107b362c3c8333d52a0d9",
      "to": "0x2e3d6c0744b10eb0a4e6f679f71554a39ec47a5d",
      "contractAddress": null
    },
    {
      "status": "0x1",
      "cumulativeGasUsed": "0x1e4fde6",
      "logs": [
        {
          "address": "0x42583067658071247ec8ce0a516a58f682002d07",
          "topics": [
            "0x43232edf9071753d2321e5fa7e018363ee248e5f2142e6c08edd3265bfb4895e",
            "0x000000000000000000000000ec6a4486b0e211f19d0107b362c3c8333d52a0d9"
          ],
          "data": "0x00000000000000000000000004583ffec9e808e61e0bfe46db51b71afa36b28f0000000000000000000000000000000000000000000000000000000000000001",
          "blockHash": "0xbd0fc3ec7da1b5d1c5c3950a8ae5f267c71d001dcd95b941b46a943f59152953",
          "blockNumber": "0x9ecf3c",
          "blockTimestamp": "0x69ad3c04",
          "transactionHash": "0x96a5a90a4e1788aa75a93a1545cced25c082f63ad8fcd584f2c61edb20da223f",
          "transactionIndex": "0x9a",
          "logIndex": "0x1a9",
          "removed": false
        }
      ],
      "logsBloom": "0x00000000000000000000000000100000000000000000000000000000000000000000000000000000000000000000000000000000000000000000020000000000000000000000000000000000000000000000000000000000000000000000000000000000000000000000000000000000000000000000000000000000000000000000000000400000000000000000200000000000000000000000000000000000000000000000000000000000000000000000000000000000000000000000000000000000000000001000000000000000000000000000001000000000000000000000000000000000000001000000080000000000000008000000000000000000",
      "type": "0x2",
      "transactionHash": "0x96a5a90a4e1788aa75a93a1545cced25c082f63ad8fcd584f2c61edb20da223f",
      "transactionIndex": "0x9a",
      "blockHash": "0xbd0fc3ec7da1b5d1c5c3950a8ae5f267c71d001dcd95b941b46a943f59152953",
      "blockNumber": "0x9ecf3c",
      "gasUsed": "0x3aeca",
      "effectiveGasPrice": "0x51c23d7",
      "from": "0xec6a4486b0e211f19d0107b362c3c8333d52a0d9",
      "to": "0x42583067658071247ec8ce0a516a58f682002d07",
      "contractAddress": null
    },
    {
      "status": "0x1",
      "cumulativeGasUsed": "0x1e8d3ba",
      "logs": [
        {
          "address": "0x42583067658071247ec8ce0a516a58f682002d07",
          "topics": [
            "0xacf9095feb3a370c9cf692421c69ef320d4db5c66e6a7d29c7694eb02364fc55"
          ],
          "data": "0x000000000000000000000000ec6a4486b0e211f19d0107b362c3c8333d52a0d9000000000000000000000000d3a54a9e02016491dad36601f40493a8d716898000000000000000000000000000000000000000000000000002c68af0bb140000",
          "blockHash": "0xbd0fc3ec7da1b5d1c5c3950a8ae5f267c71d001dcd95b941b46a943f59152953",
          "blockNumber": "0x9ecf3c",
          "blockTimestamp": "0x69ad3c04",
          "transactionHash": "0x71be8a69bae2726ec0a4cd3ff8644f16cf57b009c417014500bcc80029d135c5",
          "transactionIndex": "0x9b",
          "logIndex": "0x1aa",
          "removed": false
        },
        {
          "address": "0x42583067658071247ec8ce0a516a58f682002d07",
          "topics": [
            "0x1487af5418c47ee5ea45ef4a93398668120890774a9e13487e61e9dc3baf76dd"
          ],
          "data": "0x000000000000000000000000ec6a4486b0e211f19d0107b362c3c8333d52a0d900000000000000000000000004583ffec9e808e61e0bfe46db51b71afa36b28f0000000000000000000000000000000000000000000000000000000000000001000000000000000000000000d3a54a9e02016491dad36601f40493a8d716898000000000000000000000000000000000000000000000000002c68af0bb14000000000000000000000000000000000000000000000000000000000000009ecf3c",
          "blockHash": "0xbd0fc3ec7da1b5d1c5c3950a8ae5f267c71d001dcd95b941b46a943f59152953",
          "blockNumber": "0x9ecf3c",
          "blockTimestamp": "0x69ad3c04",
          "transactionHash": "0x71be8a69bae2726ec0a4cd3ff8644f16cf57b009c417014500bcc80029d135c5",
          "transactionIndex": "0x9b",
          "logIndex": "0x1ab",
          "removed": false
        }
      ],
      "logsBloom": "0x00200000000000000004000000000000000000000000000000000000000000000000000000000000000000000000000000000000000000000000000000000000000000000000000000000000000000000000000000000000000000000000000000000000000000000000000000000800000000000000000000000000000000000000000000000000000000000000000000000000000000000000000000000002000000000000000000000000000000000000000000000000000000200000000000000000000000001000000000000000000000000008000000000000000000000000000000000000000001000000080000000000000000000000000000000000",
      "type": "0x2",
      "transactionHash": "0x71be8a69bae2726ec0a4cd3ff8644f16cf57b009c417014500bcc80029d135c5",
      "transactionIndex": "0x9b",
      "blockHash": "0xbd0fc3ec7da1b5d1c5c3950a8ae5f267c71d001dcd95b941b46a943f59152953",
      "blockNumber": "0x9ecf3c",
      "gasUsed": "0x3d5d4",
      "effectiveGasPrice": "0x51c23d7",
      "from": "0xec6a4486b0e211f19d0107b362c3c8333d52a0d9",
      "to": "0x42583067658071247ec8ce0a516a58f682002d07",
      "contractAddress": null
    },
    {
      "status": "0x1",
      "cumulativeGasUsed": "0x1edec31",
      "logs": [
        {
          "address": "0x42583067658071247ec8ce0a516a58f682002d07",
          "topics": [
            "0x7ab260fe0af193db5f4986770d831bda4ea46099dc817e8b6716dcae8af8e88b"
          ],
          "data": "0x00000000000000000000000004583ffec9e808e61e0bfe46db51b71afa36b28f0000000000000000000000000000000000000000000000000000000000000001000000000000000000000000d3a54a9e02016491dad36601f40493a8d7168980",
          "blockHash": "0xbd0fc3ec7da1b5d1c5c3950a8ae5f267c71d001dcd95b941b46a943f59152953",
          "blockNumber": "0x9ecf3c",
          "blockTimestamp": "0x69ad3c04",
          "transactionHash": "0x74c45f369972931ed70f51069aade54685516fe5e8bb4d90e42cdaf0b8c33da4",
          "transactionIndex": "0x9c",
          "logIndex": "0x1ac",
          "removed": false
        },
        {
          "address": "0x04583ffec9e808e61e0bfe46db51b71afa36b28f",
          "topics": [
            "0x97c3f5c9077358c7266488de6a3ebba41df38417797d90b665239fcb506c840a",
            "0x0000000000000000000000000000000000000000000000000000000000000000"
          ],
          "data": "0x",
          "blockHash": "0xbd0fc3ec7da1b5d1c5c3950a8ae5f267c71d001dcd95b941b46a943f59152953",
          "blockNumber": "0x9ecf3c",
          "blockTimestamp": "0x69ad3c04",
          "transactionHash": "0x74c45f369972931ed70f51069aade54685516fe5e8bb4d90e42cdaf0b8c33da4",
          "transactionIndex": "0x9c",
          "logIndex": "0x1ad",
          "removed": false
        }
      ],
      "logsBloom": "0x00002000000000000000000000000000000000000000000000000000000000000000000000000000000000000000000000000000000000000000000000000000000000000000000000000000000000000000000800000000000000000000000000000000020000000020000000000800000000400000000000000000000000000000000002000000000000000000002000000000000000000000000000000000000000000000000000000000000000000000000000000000000000000000000000002000000000001000000000000000000000000000000000000040000020000000000000000000000001000000080000000000000000000000000000400000",
      "type": "0x2",
      "transactionHash": "0x74c45f369972931ed70f51069aade54685516fe5e8bb4d90e42cdaf0b8c33da4",
      "transactionIndex": "0x9c",
      "blockHash": "0xbd0fc3ec7da1b5d1c5c3950a8ae5f267c71d001dcd95b941b46a943f59152953",
      "blockNumber": "0x9ecf3c",
      "gasUsed": "0x51877",
      "effectiveGasPrice": "0x51c23d7",
      "from": "0xec6a4486b0e211f19d0107b362c3c8333d52a0d9",
      "to": "0x04583ffec9e808e61e0bfe46db51b71afa36b28f",
      "contractAddress": null
    }
  ],
  "libraries": [],
  "pending": [],
  "returns": {},
  "timestamp": 1772960773666,
  "chain": 11155111,
  "commit": "bb96359"
}