{
  "transactions": [
    {
      "hash": null,
      "transactionType": "CALL",
      "contractName": null,
      "contractAddress": "0xfff9976782d46cc05630d1f6ebab18b2324d6b14",
      "function": "approve(address,uint256)",
      "arguments": [
        "0x2E3D6c0744b10eb0A4e6F679F71554a39Ec47a5D",
        "200000000000000000"
      ],
      "transaction": {
        "from": "0xec6a4486b0e211f19d0107b362c3c8333d52a0d9",
        "to": "0xfff9976782d46cc05630d1f6ebab18b2324d6b14",
        "gas": "0xf879",
        "value": "0x0",
        "input": "0x095ea7b30000000000000000000000002e3d6c0744b10eb0a4e6f679f71554a39ec47a5d00000000000000000000000000000000000000000000000002c68af0bb140000",
        "nonce": "0x20",
        "chainId": "0xaa36a7"
      },
      "additionalContracts": [],
      "isFixedGasLimit": false
    },
    {
      "hash": null,
      "transactionType": "CALL",
      "contractName": null,
      "contractAddress": "0x2e3d6c0744b10eb0a4e6f679f71554a39ec47a5d",
      "function": "depositIntoStrategy(address,address,uint256)",
      "arguments": [
        "0xD3a54A9E02016491dad36601f40493A8D7168980",
        "0xfFf9976782d46CC05630D1f6eBAb18b2324d6B14",
        "200000000000000000"
      ],
      "transaction": {
        "from": "0xec6a4486b0e211f19d0107b362c3c8333d52a0d9",
        "to": "0x2e3d6c0744b10eb0a4e6f679f71554a39ec47a5d",
        "gas": "0x4c882",
        "value": "0x0",
        "input": "0xe7a050aa000000000000000000000000d3a54a9e02016491dad36601f40493a8d7168980000000000000000000000000fff9976782d46cc05630d1f6ebab18b2324d6b1400000000000000000000000000000000000000000000000002c68af0bb140000",
        "nonce": "0x21",
        "chainId": "0xaa36a7"
      },
      "additionalContracts": [],
      "isFixedGasLimit": false
    },
    {
      "hash": null,
      "transactionType": "CALL",
      "contractName": null,
      "contractAddress": "0x42583067658071247ec8ce0a516a58f682002d07",
      "function": "registerForOperatorSets(address,(address,uint32[],bytes))",
      "arguments": [
        "0xeC6A4486B0E211f19d0107B362C3c8333d52a0D9",
        "(0x997102126a3B10AA7Bfd991ef4DE8E6E196AFDF2, [1], 0x)"
      ],
      "transaction": {
        "from": "0xec6a4486b0e211f19d0107b362c3c8333d52a0d9",
        "to": "0x42583067658071247ec8ce0a516a58f682002d07",
        "gas": "0x562d3",
        "value": "0x0",
        "input": "0xadc2e3d9000000000000000000000000ec6a4486b0e211f19d0107b362c3c8333d52a0d90000000000000000000000000000000000000000000000000000000000000040000000000000000000000000997102126a3b10aa7bfd991ef4de8e6e196afdf2000000000000000000000000000000000000000000000000000000000000006000000000000000000000000000000000000000000000000000000000000000a0000000000000000000000000000000000000000000000000000000000000000100000000000000000000000000000000000000000000000000000000000000010000000000000000000000000000000000000000000000000000000000000000",
        "nonce": "0x22",
        "chainId": "0xaa36a7"
      },
      "additionalContracts": [],
      "isFixedGasLimit": false
    },
    {
      "hash": null,
      "transactionType": "CALL",
      "contractName": null,
      "contractAddress": "0x42583067658071247ec8ce0a516a58f682002d07",
      "function": "modifyAllocations(address,((address,uint32),address[],uint64[])[])",
      "arguments": [
        "0xeC6A4486B0E211f19d0107B362C3c8333d52a0D9",
        "[((0x997102126a3B10AA7Bfd991ef4DE8E6E196AFDF2, 1), [0xD3a54A9E02016491dad36601f40493A8D7168980], [200000000000000000])]"
      ],
      "transaction": {
        "from": "0xec6a4486b0e211f19d0107b362c3c8333d52a0d9",
        "to": "0x42583067658071247ec8ce0a516a58f682002d07",
        "gas": "0x5738e",
        "value": "0x0",
        "input": "0x952899ee000000000000000000000000ec6a4486b0e211f19d0107b362c3c8333d52a0d9000000000000000000000000000000000000000000000000000000000000004000000000000000000000000000000000000000000000000000000000000000010000000000000000000000000000000000000000000000000000000000000020000000000000000000000000997102126a3b10aa7bfd991ef4de8e6e196afdf20000000000000000000000000000000000000000000000000000000000000001000000000000000000000000000000000000000000000000000000000000008000000000000000000000000000000000000000000000000000000000000000c00000000000000000000000000000000000000000000000000000000000000001000000000000000000000000d3a54a9e02016491dad36601f40493a8d7168980000000000000000000000000000000000000000000000000000000000000000100000000000000000000000000000000000000000000000002c68af0bb140000",
        "nonce": "0x23",
        "chainId": "0xaa36a7"
      },
      "additionalContracts": [],
      "isFixedGasLimit": false
    },
    {
      "hash": null,
      "transactionType": "CALL",
      "contractName": null,
      "contractAddress": "0x997102126a3b10aa7bfd991ef4de8e6e196afdf2",
      "function": "createPosition((address,uint16,uint256,uint256,address,uint8,address,uint256,bytes32),bytes)",
      "arguments": [
        "(0x533DC1904809a47991797aE64d955c1029c143B1, 100, 2592000, 1775608440, 0xfFf9976782d46CC05630D1f6eBAb18b2324d6B14, 0, 0x0000000000000000000000000000000000000000, 604800, 0x000000000000000000000000ec6a4486b0e211f19d0107b362c3c8333d52a0d9)",
        "0x"
      ],
      "transaction": {
        "from": "0xec6a4486b0e211f19d0107b362c3c8333d52a0d9",
        "to": "0x997102126a3b10aa7bfd991ef4de8e6e196afdf2",
        "gas": "0x709ca",
        "value": "0x0",
        "input": "0xbff9ed4b000000000000000000000000533dc1904809a47991797ae64d955c1029c143b100000000000000000000000000000000000000000000000000000000000000640000000000000000000000000000000000000000000000000000000000278d000000000000000000000000000000000000000000000000000000000069d5a278000000000000000000000000fff9976782d46cc05630d1f6ebab18b2324d6b14000000000000000000000000000000000000000000000000000000000000000000000000000000000000000000000000000000000000000000000000000000000000000000000000000000000000000000000000000000000000000000093a80000000000000000000000000ec6a4486b0e211f19d0107b362c3c8333d52a0d900000000000000000000000000000000000000000000000000000000000001400000000000000000000000000000000000000000000000000000000000000000",
        "nonce": "0x24",
        "chainId": "0xaa36a7"
      },
      "additionalContracts": [],
      "isFixedGasLimit": false
    }
  ],
  "receipts": [],
  "libraries": [],
  "pending": [],
  "returns": {},
  "timestamp": 1773016490830,
  "chain": 11155111,
  "commit": "63d3e0f"
}