{
  "transactions": [
    {
      "hash": "0x59d298a28f927698643181845fca3d290d54eff46c2df9621069253251cd7e22",
      "transactionType": "CALL",
      "contractName": null,
      "contractAddress": "0xfff9976782d46cc05630d1f6ebab18b2324d6b14",
      "function": "approve(address,uint256)",
      "arguments": [
        "0x2E3D6c0744b10eb0A4e6F679F71554a39Ec47a5D",
        "200000000000000000"
      ],
      "transaction": {
        "from": "0xec6a4486b0e211f19d0107b362c3c8333d52a0d9",
        "to": "0xfff9976782d46cc05630d1f6ebab18b2324d6b14",
        "gas": "0xf879",
        "value": "0x0",
        "input": "0x095ea7b30000000000000000000000002e3d6c0744b10eb0a4e6f679f71554a39ec47a5d00000000000000000000000000000000000000000000000002c68af0bb140000",
        "nonce": "0x20",
        "chainId": "0xaa36a7"
      },
      "additionalContracts": [],
      "isFixedGasLimit": false
    },
    {
      "hash": "0x09e19ed712d85ccdc6998855b6715f7e712d18c2941acbdca03bcc3a07d58e19",
      "transactionType": "CALL",
      "contractName": null,
      "contractAddress": "0x2e3d6c0744b10eb0a4e6f679f71554a39ec47a5d",
      "function": "depositIntoStrategy(address,address,uint256)",
      "arguments": [
        "0xD3a54A9E02016491dad36601f40493A8D7168980",
        "0xfFf9976782d46CC05630D1f6eBAb18b2324d6B14",
        "200000000000000000"
      ],
      "transaction": {
        "from": "0xec6a4486b0e211f19d0107b362c3c8333d52a0d9",
        "to": "0x2e3d6c0744b10eb0a4e6f679f71554a39ec47a5d",
        "gas": "0x4c882",
        "value": "0x0",
        "input": "0xe7a050aa000000000000000000000000d3a54a9e02016491dad36601f40493a8d7168980000000000000000000000000fff9976782d46cc05630d1f6ebab18b2324d6b1400000000000000000000000000000000000000000000000002c68af0bb140000",
        "nonce": "0x21",
        "chainId": "0xaa36a7"
      },
      "additionalContracts": [],
      "isFixedGasLimit": false
    },
    {
      "hash": "0x55ea3ca8fb1ba134fc8c273ac25ee6bf7ce1d7ed3183ca39436ded3e3d4f800e",
      "transactionType": "CALL",
      "contractName": null,
      "contractAddress": "0x42583067658071247ec8ce0a516a58f682002d07",
      "function": "registerForOperatorSets(address,(address,uint32[],bytes))",
      "arguments": [
        "0xeC6A4486B0E211f19d0107B362C3c8333d52a0D9",
        "(0x997102126a3B10AA7Bfd991ef4DE8E6E196AFDF2, [1], 0x)"
      ],
      "transaction": {
        "from": "0xec6a4486b0e211f19d0107b362c3c8333d52a0d9",
        "to": "0x42583067658071247ec8ce0a516a58f682002d07",
        "gas": "0x562d3",
        "value": "0x0",
        "input": "0xadc2e3d9000000000000000000000000ec6a4486b0e211f19d0107b362c3c8333d52a0d90000000000000000000000000000000000000000000000000000000000000040000000000000000000000000997102126a3b10aa7bfd991ef4de8e6e196afdf2000000000000000000000000000000000000000000000000000000000000006000000000000000000000000000000000000000000000000000000000000000a0000000000000000000000000000000000000000000000000000000000000000100000000000000000000000000000000000000000000000000000000000000010000000000000000000000000000000000000000000000000000000000000000",
        "nonce": "0x22",
        "chainId": "0xaa36a7"
      },
      "additionalContracts": [],
      "isFixedGasLimit": false
    },
    {
      "hash": "0xf333399f8c1ced2c8ee1dfe6e81ec9843f195b67858e9696323d99fd5e9dcb4c",
      "transactionType": "CALL",
      "contractName": null,
      "contractAddress": "0x42583067658071247ec8ce0a516a58f682002d07",
      "function": "modifyAllocations(address,((address,uint32),address[],uint64[])[])",
      "arguments": [
        "0xeC6A4486B0E211f19d0107B362C3c8333d52a0D9",
        "[((0x997102126a3B10AA7Bfd991ef4DE8E6E196AFDF2, 1), [0xD3a54A9E02016491dad36601f40493A8D7168980], [200000000000000000])]"
      ],
      "transaction": {
        "from": "0xec6a4486b0e211f19d0107b362c3c8333d52a0d9",
        "to": "0x42583067658071247ec8ce0a516a58f682002d07",
        "gas": "0x5738e",
        "value": "0x0",
        "input": "0x952899ee000000000000000000000000ec6a4486b0e211f19d0107b362c3c8333d52a0d9000000000000000000000000000000000000000000000000000000000000004000000000000000000000000000000000000000000000000000000000000000010000000000000000000000000000000000000000000000000000000000000020000000000000000000000000997102126a3b10aa7bfd991ef4de8e6e196afdf20000000000000000000000000000000000000000000000000000000000000001000000000000000000000000000000000000000000000000000000000000008000000000000000000000000000000000000000000000000000000000000000c00000000000000000000000000000000000000000000000000000000000000001000000000000000000000000d3a54a9e02016491dad36601f40493a8d7168980000000000000000000000000000000000000000000000000000000000000000100000000000000000000000000000000000000000000000002c68af0bb140000",
        "nonce": "0x23",
        "chainId": "0xaa36a7"
      },
      "additionalContracts": [],
      "isFixedGasLimit": false
    },
    {
      "hash": "0xccfefc25373ee90f3a0ae800abe8aaf1a0c6ad5df849c76ea2232a1fa9360b74",
      "transactionType": "CALL",
      "contractName": null,
      "contractAddress": "0x997102126a3b10aa7bfd991ef4de8e6e196afdf2",
      "function": "createPosition((address,uint16,uint256,uint256,address,uint8,address,uint256,bytes32),bytes)",
      "arguments": [
        "(0x533DC1904809a47991797aE64d955c1029c143B1, 100, 2592000, 1775608488, 0xfFf9976782d46CC05630D1f6eBAb18b2324d6B14, 0, 0x0000000000000000000000000000000000000000, 604800, 0x000000000000000000000000ec6a4486b0e211f19d0107b362c3c8333d52a0d9)",
        "0x"
      ],
      "transaction": {
        "from": "0xec6a4486b0e211f19d0107b362c3c8333d52a0d9",
        "to": "0x997102126a3b10aa7bfd991ef4de8e6e196afdf2",
        "gas": "0x709ca",
        "value": "0x0",
        "input": "0xbff9ed4b000000000000000000000000533dc1904809a47991797ae64d955c1029c143b100000000000000000000000000000000000000000000000000000000000000640000000000000000000000000000000000000000000000000000000000278d000000000000000000000000000000000000000000000000000000000069d5a2a8000000000000000000000000fff9976782d46cc05630d1f6ebab18b2324d6b14000000000000000000000000000000000000000000000000000000000000000000000000000000000000000000000000000000000000000000000000000000000000000000000000000000000000000000000000000000000000000000093a80000000000000000000000000ec6a4486b0e211f19d0107b362c3c8333d52a0d900000000000000000000000000000000000000000000000000000000000001400000000000000000000000000000000000000000000000000000000000000000",
        "nonce": "0x24",
        "chainId": "0xaa36a7"
      },
      "additionalContracts": [],
      "isFixedGasLimit": false
    }
  ],
  "receipts": [
    {
      "status": "0x1",
      "cumulativeGasUsed": "0x1948b6f",
      "logs": [
        {
          "address": "0xfff9976782d46cc05630d1f6ebab18b2324d6b14",
          "topics": [
            "0x8c5be1e5ebec7d5bd14f71427d1e84f3dd0314c0f7b2291e5b200ac8c7c3b925",
            "0x000000000000000000000000ec6a4486b0e211f19d0107b362c3c8333d52a0d9",
            "0x0000000000000000000000002e3d6c0744b10eb0a4e6f679f71554a39ec47a5d"
          ],
          "data": "0x00000000000000000000000000000000000000000000000002c68af0bb140000",
          "blockHash": "0x69ecaee8b938eceedfa8acb3a6ba576d4ef55d6d1aaf5cdeba625c6bf6aff5a5",
          "blockNumber": "0x9edeb9",
          "blockTimestamp": "0x69ae15cc",
          "transactionHash": "0x55ea3ca8fb1ba134fc8c273ac25ee6bf7ce1d7ed3183ca39436ded3e3d4f800e",
          "transactionIndex": "0x8d",
          "logIndex": "0x21e",
          "removed": false
        }
      ],
      "logsBloom": "0x00000000000000000000000400000000000000000000000000000000000000000000000000000000000000000000000000000000000000000000020000200000000000000000000000000000000000000000000000000000000000000000000000000000000000000000000000000000000000000000000000000000000000000040000000400000000000000000200000000000000000000000000000000000020020000000000008000000000000001000000000000000000000000000000000000000000000000002000000000000000000000000000000000000000000000010000000000000000000000000000000000000000000000000000000000000",
      "type": "0x2",
      "transactionHash": "0x55ea3ca8fb1ba134fc8c273ac25ee6bf7ce1d7ed3183ca39436ded3e3d4f800e",
      "transactionIndex": "0x8d",
      "blockHash": "0x69ecaee8b938eceedfa8acb3a6ba576d4ef55d6d1aaf5cdeba625c6bf6aff5a5",
      "blockNumber": "0x9edeb9",
      "gasUsed": "0xb3e4",
      "effectiveGasPrice": "0x25e7b6",
      "from": "0xec6a4486b0e211f19d0107b362c3c8333d52a0d9",
      "to": "0xfff9976782d46cc05630d1f6ebab18b2324d6b14",
      "contractAddress": null
    },
    {
      "status": "0x1",
      "cumulativeGasUsed": "0x19801f5",
      "logs": [
        {
          "address": "0xfff9976782d46cc05630d1f6ebab18b2324d6b14",
          "topics": [
            "0xddf252ad1be2c89b69c2b068fc378daa952ba7f163c4a11628f55a4df523b3ef",
            "0x000000000000000000000000ec6a4486b0e211f19d0107b362c3c8333d52a0d9",
            "0x000000000000000000000000d3a54a9e02016491dad36601f40493a8d7168980"
          ],
          "data": "0x00000000000000000000000000000000000000000000000002c68af0bb140000",
          "blockHash": "0x69ecaee8b938eceedfa8acb3a6ba576d4ef55d6d1aaf5cdeba625c6bf6aff5a5",
          "blockNumber": "0x9edeb9",
          "blockTimestamp": "0x69ae15cc",
          "transactionHash": "0x59d298a28f927698643181845fca3d290d54eff46c2df9621069253251cd7e22",
          "transactionIndex": "0x8e",
          "logIndex": "0x21f",
          "removed": false
        },
        {
          "address": "0xd3a54a9e02016491dad36601f40493a8d7168980",
          "topics": [
            "0xd2494f3479e5da49d386657c292c610b5b01df313d07c62eb0cfa49924a31be8"
          ],
          "data": "0x0000000000000000000000000000000000000000000000000de0b6b3a7640000",
          "blockHash": "0x69ecaee8b938eceedfa8acb3a6ba576d4ef55d6d1aaf5cdeba625c6bf6aff5a5",
          "blockNumber": "0x9edeb9",
          "blockTimestamp": "0x69ae15cc",
          "transactionHash": "0x59d298a28f927698643181845fca3d290d54eff46c2df9621069253251cd7e22",
          "transactionIndex": "0x8e",
          "logIndex": "0x220",
          "removed": false
        },
        {
          "address": "0x2e3d6c0744b10eb0a4e6f679f71554a39ec47a5d",
          "topics": [
            "0x5548c837ab068cf56a2c2479df0882a4922fd203edb7517321831d95078c5f62"
          ],
          "data": "0x000000000000000000000000ec6a4486b0e211f19d0107b362c3c8333d52a0d9000000000000000000000000d3a54a9e02016491dad36601f40493a8d716898000000000000000000000000000000000000000000000000002c68af0bb140000",
          "blockHash": "0x69ecaee8b938eceedfa8acb3a6ba576d4ef55d6d1aaf5cdeba625c6bf6aff5a5",
          "blockNumber": "0x9edeb9",
          "blockTimestamp": "0x69ae15cc",
          "transactionHash": "0x59d298a28f927698643181845fca3d290d54eff46c2df9621069253251cd7e22",
          "transactionIndex": "0x8e",
          "logIndex": "0x221",
          "removed": false
        },
        {
          "address": "0xd4a7e1bd8015057293f0d0a557088c286942e84b",
          "topics": [
            "0x8be932bac54561f27260f95463d9b8ab37e06b2842e5ee2404157cc13df6eb8f"
          ],
          "data": "0x000000000000000000000000ec6a4486b0e211f19d0107b362c3c8333d52a0d9000000000000000000000000d3a54a9e02016491dad36601f40493a8d71689800000000000000000000000000000000000000000000000000de0b6b3a7640000",
          "blockHash": "0x69ecaee8b938eceedfa8acb3a6ba576d4ef55d6d1aaf5cdeba625c6bf6aff5a5",
          "blockNumber": "0x9edeb9",
          "blockTimestamp": "0x69ae15cc",
          "transactionHash": "0x59d298a28f927698643181845fca3d290d54eff46c2df9621069253251cd7e22",
          "transactionIndex": "0x8e",
          "logIndex": "0x222",
          "removed": false
        },
        {
          "address": "0xd4a7e1bd8015057293f0d0a557088c286942e84b",
          "topics": [
            "0x1ec042c965e2edd7107b51188ee0f383e22e76179041ab3a9d18ff151405166c",
            "0x000000000000000000000000ec6a4486b0e211f19d0107b362c3c8333d52a0d9"
          ],
          "data": "0x000000000000000000000000ec6a4486b0e211f19d0107b362c3c8333d52a0d9000000000000000000000000d3a54a9e02016491dad36601f40493a8d716898000000000000000000000000000000000000000000000000002c68af0bb140000",
          "blockHash": "0x69ecaee8b938eceedfa8acb3a6ba576d4ef55d6d1aaf5cdeba625c6bf6aff5a5",
          "blockNumber": "0x9edeb9",
          "blockTimestamp": "0x69ae15cc",
          "transactionHash": "0x59d298a28f927698643181845fca3d290d54eff46c2df9621069253251cd7e22",
          "transactionIndex": "0x8e",
          "logIndex": "0x223",
          "removed": false
        }
      ],
      "logsBloom": "0x00000000000000000000000000000000000000000000000000000000000000000000008000010000000000000000000000000000000022000000028040000000040000000008800000000008000000000000000000000001000000000000000000000000000000000000000000000000000000000000000000000010000000000040440000400000000000000000200000000000040000000000000000000000000020000000000000000000000000001000000000000000010000000000001000000002000001000042000000000020000000100008000000000000000000000000000200000000000000000000000000000000000000000000000000480000",
      "type": "0x2",
      "transactionHash": "0x59d298a28f927698643181845fca3d290d54eff46c2df9621069253251cd7e22",
      "transactionIndex": "0x8e",
      "blockHash": "0x69ecaee8b938eceedfa8acb3a6ba576d4ef55d6d1aaf5cdeba625c6bf6aff5a5",
      "blockNumber": "0x9edeb9",
      "gasUsed": "0x37686",
      "effectiveGasPrice": "0x25e7b6",
      "from": "0xec6a4486b0e211f19d0107b362c3c8333d52a0d9",
      "to": "0x2e3d6c0744b10eb0a4e6f679f71554a39ec47a5d",
      "contractAddress": null
    },
    {
      "status": "0x1",
      "cumulativeGasUsed": "0x19bb0bf",
      "logs": [
        {
          "address": "0x42583067658071247ec8ce0a516a58f682002d07",
          "topics": [
            "0x43232edf9071753d2321e5fa7e018363ee248e5f2142e6c08edd3265bfb4895e",
            "0x000000000000000000000000ec6a4486b0e211f19d0107b362c3c8333d52a0d9"
          ],
          "data": "0x000000000000000000000000997102126a3b10aa7bfd991ef4de8e6e196afdf20000000000000000000000000000000000000000000000000000000000000001",
          "blockHash": "0x69ecaee8b938eceedfa8acb3a6ba576d4ef55d6d1aaf5cdeba625c6bf6aff5a5",
          "blockNumber": "0x9edeb9",
          "blockTimestamp": "0x69ae15cc",
          "transactionHash": "0xccfefc25373ee90f3a0ae800abe8aaf1a0c6ad5df849c76ea2232a1fa9360b74",
          "transactionIndex": "0x8f",
          "logIndex": "0x224",
          "removed": false
        }
      ],
      "logsBloom": "0x00000000000000000000000000100000000000000000000000000000000000000000000000000000000000000000000000000000000000000000020000000000000000000000000000000000000000000000000000000000000000000000000000000000000000000000000000000000000000000000000000000000000000000000000000400000000000000000200000000000000000000000000000000000000000000000000000000000000000000000000000000000000000000000000000000000000000001000000000000000000000000000001000000000000000000000000000000000000001000000080000000000000008000000000000000000",
      "type": "0x2",
      "transactionHash": "0xccfefc25373ee90f3a0ae800abe8aaf1a0c6ad5df849c76ea2232a1fa9360b74",
      "transactionIndex": "0x8f",
      "blockHash": "0x69ecaee8b938eceedfa8acb3a6ba576d4ef55d6d1aaf5cdeba625c6bf6aff5a5",
      "blockNumber": "0x9edeb9",
      "gasUsed": "0x3aeca",
      "effectiveGasPrice": "0x25e7b6",
      "from": "0xec6a4486b0e211f19d0107b362c3c8333d52a0d9",
      "to": "0x42583067658071247ec8ce0a516a58f682002d07",
      "contractAddress": null
    },
    {
      "status": "0x1",
      "cumulativeGasUsed": "0x19f6af9",
      "logs": [
        {
          "address": "0x42583067658071247ec8ce0a516a58f682002d07",
          "topics": [
            "0xacf9095feb3a370c9cf692421c69ef320d4db5c66e6a7d29c7694eb02364fc55"
          ],
          "data": "0x000000000000000000000000ec6a4486b0e211f19d0107b362c3c8333d52a0d9000000000000000000000000d3a54a9e02016491dad36601f40493a8d71689800000000000000000000000000000000000000000000000000000000000000000",
          "blockHash": "0x69ecaee8b938eceedfa8acb3a6ba576d4ef55d6d1aaf5cdeba625c6bf6aff5a5",
          "blockNumber": "0x9edeb9",
          "blockTimestamp": "0x69ae15cc",
          "transactionHash": "0x09e19ed712d85ccdc6998855b6715f7e712d18c2941acbdca03bcc3a07d58e19",
          "transactionIndex": "0x90",
          "logIndex": "0x225",
          "removed": false
        },
        {
          "address": "0x42583067658071247ec8ce0a516a58f682002d07",
          "topics": [
            "0xacf9095feb3a370c9cf692421c69ef320d4db5c66e6a7d29c7694eb02364fc55"
          ],
          "data": "0x000000000000000000000000ec6a4486b0e211f19d0107b362c3c8333d52a0d9000000000000000000000000d3a54a9e02016491dad36601f40493a8d716898000000000000000000000000000000000000000000000000002c68af0bb140000",
          "blockHash": "0x69ecaee8b938eceedfa8acb3a6ba576d4ef55d6d1aaf5cdeba625c6bf6aff5a5",
          "blockNumber": "0x9edeb9",
          "blockTimestamp": "0x69ae15cc",
          "transactionHash": "0x09e19ed712d85ccdc6998855b6715f7e712d18c2941acbdca03bcc3a07d58e19",
          "transactionIndex": "0x90",
          "logIndex": "0x226",
          "removed": false
        },
        {
          "address": "0x42583067658071247ec8ce0a516a58f682002d07",
          "topics": [
            "0x1487af5418c47ee5ea45ef4a93398668120890774a9e13487e61e9dc3baf76dd"
          ],
          "data": "0x000000000000000000000000ec6a4486b0e211f19d0107b362c3c8333d52a0d9000000000000000000000000997102126a3b10aa7bfd991ef4de8e6e196afdf20000000000000000000000000000000000000000000000000000000000000001000000000000000000000000d3a54a9e02016491dad36601f40493a8d716898000000000000000000000000000000000000000000000000002c68af0bb14000000000000000000000000000000000000000000000000000000000000009edeb9",
          "blockHash": "0x69ecaee8b938eceedfa8acb3a6ba576d4ef55d6d1aaf5cdeba625c6bf6aff5a5",
          "blockNumber": "0x9edeb9",
          "blockTimestamp": "0x69ae15cc",
          "transactionHash": "0x09e19ed712d85ccdc6998855b6715f7e712d18c2941acbdca03bcc3a07d58e19",
          "transactionIndex": "0x90",
          "logIndex": "0x227",
          "removed": false
        }
      ],
      "logsBloom": "0x00200000000000000004000000000000000000000000000000000000000000000000000000000000000000000000000000000000000000000000000000000000000000000000000000000000000000000000000000000000000000000000000000000000000000000000000000000800000000000000000000000000000000000000000000000000000000000000000000000000000000000000000000000002000000000000000000000000000000000000000000000000000000200000000000000000000000001000000000000000000000000008000000000000000000000000000000000000000001000000080000000000000000000000000000000000",
      "type": "0x2",
      "transactionHash": "0x09e19ed712d85ccdc6998855b6715f7e712d18c2941acbdca03bcc3a07d58e19",
      "transactionIndex": "0x90",
      "blockHash": "0x69ecaee8b938eceedfa8acb3a6ba576d4ef55d6d1aaf5cdeba625c6bf6aff5a5",
      "blockNumber": "0x9edeb9",
      "gasUsed": "0x3ba3a",
      "effectiveGasPrice": "0x25e7b6",
      "from": "0xec6a4486b0e211f19d0107b362c3c8333d52a0d9",
      "to": "0x42583067658071247ec8ce0a516a58f682002d07",
      "contractAddress": null
    },
    {
      "status": "0x1",
      "cumulativeGasUsed": "0x1a48370",
      "logs": [
        {
          "address": "0x42583067658071247ec8ce0a516a58f682002d07",
          "topics": [
            "0x7ab260fe0af193db5f4986770d831bda4ea46099dc817e8b6716dcae8af8e88b"
          ],
          "data": "0x000000000000000000000000997102126a3b10aa7bfd991ef4de8e6e196afdf20000000000000000000000000000000000000000000000000000000000000001000000000000000000000000d3a54a9e02016491dad36601f40493a8d7168980",
          "blockHash": "0x69ecaee8b938eceedfa8acb3a6ba576d4ef55d6d1aaf5cdeba625c6bf6aff5a5",
          "blockNumber": "0x9edeb9",
          "blockTimestamp": "0x69ae15cc",
          "transactionHash": "0xf333399f8c1ced2c8ee1dfe6e81ec9843f195b67858e9696323d99fd5e9dcb4c",
          "transactionIndex": "0x91",
          "logIndex": "0x228",
          "removed": false
        },
        {
          "address": "0x997102126a3b10aa7bfd991ef4de8e6e196afdf2",
          "topics": [
            "0x97c3f5c9077358c7266488de6a3ebba41df38417797d90b665239fcb506c840a",
            "0x0000000000000000000000000000000000000000000000000000000000000000"
          ],
          "data": "0x",
          "blockHash": "0x69ecaee8b938eceedfa8acb3a6ba576d4ef55d6d1aaf5cdeba625c6bf6aff5a5",
          "blockNumber": "0x9edeb9",
          "blockTimestamp": "0x69ae15cc",
          "transactionHash": "0xf333399f8c1ced2c8ee1dfe6e81ec9843f195b67858e9696323d99fd5e9dcb4c",
          "transactionIndex": "0x91",
          "logIndex": "0x229",
          "removed": false
        }
      ],
      "logsBloom": "0x00000000000000000000000000000000000000000000000000000000000000000000000000000000000000000000000000000000000000000000000000000000000000000000000000000000000000000000000000000000000000000000000000000000020000000020000000000800000000400000000000000000000000000040000000000000000000000000002002000000000000000000000000000000000000000400000000000000000000000000000000000000000000000000000000002000000000001000000000000000000000000000000000000040000020000000000000000000000001000000080000000000000000000000000000400000",
      "type": "0x2",
      "transactionHash": "0xf333399f8c1ced2c8ee1dfe6e81ec9843f195b67858e9696323d99fd5e9dcb4c",
      "transactionIndex": "0x91",
      "blockHash": "0x69ecaee8b938eceedfa8acb3a6ba576d4ef55d6d1aaf5cdeba625c6bf6aff5a5",
      "blockNumber": "0x9edeb9",
      "gasUsed": "0x51877",
      "effectiveGasPrice": "0x25e7b6",
      "from": "0xec6a4486b0e211f19d0107b362c3c8333d52a0d9",
      "to": "0x997102126a3b10aa7bfd991ef4de8e6e196afdf2",
      "contractAddress": null
    }
  ],
  "libraries": [],
  "pending": [],
  "returns": {},
  "timestamp": 1773016525350,
  "chain": 11155111,
  "commit": "63d3e0f"
}